{
  "_format": "hh-sol-artifact-1",
  "contractName": "Web3RSVP",
  "sourceName": "contracts/Web3RSVP.sol",
  "abi": [
    {
      "anonymous": false,
      "inputs": [
        {
          "indexed": false,
          "internalType": "bytes32",
          "name": "eventId",
          "type": "bytes32"
        },
        {
          "indexed": false,
          "internalType": "address",
          "name": "confirmAttendee",
          "type": "address"
        }
      ],
      "name": "ConfirmAttendee",
      "type": "event"
    },
    {
      "anonymous": false,
      "inputs": [
        {
          "indexed": false,
          "internalType": "bytes32",
          "name": "eventId",
          "type": "bytes32"
        }
      ],
      "name": "DepositsPaidOut",
      "type": "event"
    },
    {
      "anonymous": false,
      "inputs": [
        {
          "indexed": false,
          "internalType": "bytes32",
          "name": "eventID",
          "type": "bytes32"
        },
        {
          "indexed": false,
          "internalType": "address",
          "name": "creatorAddress",
          "type": "address"
        },
        {
          "indexed": false,
          "internalType": "uint256",
          "name": "eventTimestamp",
          "type": "uint256"
        },
        {
          "indexed": false,
          "internalType": "uint256",
          "name": "maxCapacity",
          "type": "uint256"
        },
        {
          "indexed": false,
          "internalType": "uint256",
          "name": "deposit",
          "type": "uint256"
        },
        {
          "indexed": false,
          "internalType": "string",
          "name": "eventDataCID",
          "type": "string"
        }
      ],
      "name": "NewEventCreated",
      "type": "event"
    },
    {
      "anonymous": false,
      "inputs": [
        {
          "indexed": false,
          "internalType": "bytes32",
          "name": "eventId",
          "type": "bytes32"
        },
        {
          "indexed": false,
          "internalType": "address",
          "name": "attendeeAddress",
          "type": "address"
        }
      ],
      "name": "NewRSVP",
      "type": "event"
    },
    {
      "inputs": [
        {
          "internalType": "uint256",
          "name": "eventTimestamp",
          "type": "uint256"
        },
        {
          "internalType": "uint256",
          "name": "deposit",
          "type": "uint256"
        },
        {
          "internalType": "uint256",
          "name": "maxCapacity",
          "type": "uint256"
        },
        {
          "internalType": "string",
          "name": "eventDataCID",
          "type": "string"
        }
      ],
      "name": "CreateNewEvent",
      "outputs": [],
      "stateMutability": "nonpayable",
      "type": "function"
    },
    {
      "inputs": [
        {
          "internalType": "bytes32",
          "name": "eventId",
          "type": "bytes32"
        }
      ],
      "name": "CreateNewRSVP",
      "outputs": [],
      "stateMutability": "payable",
      "type": "function"
    },
    {
      "inputs": [
        {
          "internalType": "bytes32",
          "name": "eventId",
          "type": "bytes32"
        }
      ],
      "name": "confirmAllAttendee",
      "outputs": [],
      "stateMutability": "nonpayable",
      "type": "function"
    },
    {
      "inputs": [
        {
          "internalType": "bytes32",
          "name": "eventId",
          "type": "bytes32"
        },
        {
          "internalType": "address",
          "name": "attendee",
          "type": "address"
        }
      ],
      "name": "confirmAttendee",
      "outputs": [],
      "stateMutability": "nonpayable",
      "type": "function"
    },
    {
      "inputs": [
        {
          "internalType": "bytes32",
          "name": "",
          "type": "bytes32"
        }
      ],
      "name": "idToEvent",
      "outputs": [
        {
          "internalType": "bytes32",
          "name": "eventId",
          "type": "bytes32"
        },
        {
          "internalType": "string",
          "name": "eventDataCID",
          "type": "string"
        },
        {
          "internalType": "address",
          "name": "eventOwner",
          "type": "address"
        },
        {
          "internalType": "uint256",
          "name": "eventTimestamp",
          "type": "uint256"
        },
        {
          "internalType": "uint256",
          "name": "deposit",
          "type": "uint256"
        },
        {
          "internalType": "uint256",
          "name": "maxCapacity",
          "type": "uint256"
        },
        {
          "internalType": "bool",
          "name": "paidOut",
          "type": "bool"
        }
      ],
      "stateMutability": "view",
      "type": "function"
    },
    {
      "inputs": [
        {
          "internalType": "bytes32",
          "name": "eventId",
          "type": "bytes32"
        }
      ],
      "name": "withdrawUnclaimedDeposit",
      "outputs": [],
      "stateMutability": "nonpayable",
      "type": "function"
    }
  ],
  "bytecode": "0x608060405234801561001057600080fd5b5061218b806100206000396000f3fe6080604052600436106100555760003560e01c806319b9ac741461005a5780636dcdf2cd14610083578063909ef021146100ac578063a10ed16e146100ef578063c34a315714610118578063e6a1900014610141575b600080fd5b34801561006657600080fd5b50610081600480360381019061007c9190611621565b61015d565b005b34801561008f57600080fd5b506100aa60048036038101906100a5919061164a565b6104b4565b005b3480156100b857600080fd5b506100d360048036038101906100ce9190611621565b610a25565b6040516100e69796959493929190611a9c565b60405180910390f35b3480156100fb57600080fd5b5061011660048036038101906101119190611686565b610b1c565b005b34801561012457600080fd5b5061013f600480360381019061013a9190611621565b610d38565b005b61015b60048036038101906101569190611621565b6111d8565b005b6000806000838152602001908152602001600020604051806101200160405290816000820154815260200160018201805461019790611e1e565b80601f01602080910402602001604051908101604052809291908181526020018280546101c390611e1e565b80156102105780601f106101e557610100808354040283529160200191610210565b820191906000526020600020905b8154815290600101906020018083116101f357829003601f168201915b505050505081526020016002820160009054906101000a900473ffffffffffffffffffffffffffffffffffffffff1673ffffffffffffffffffffffffffffffffffffffff1673ffffffffffffffffffffffffffffffffffffffff1681526020016003820154815260200160048201548152602001600582015481526020016006820180548060200260200160405190810160405280929190818152602001828054801561031257602002820191906000526020600020905b8160009054906101000a900473ffffffffffffffffffffffffffffffffffffffff1673ffffffffffffffffffffffffffffffffffffffff16815260200190600101908083116102c8575b50505050508152602001600782018054806020026020016040519081016040528092919081815260200182805480156103a057602002820191906000526020600020905b8160009054906101000a900473ffffffffffffffffffffffffffffffffffffffff1673ffffffffffffffffffffffffffffffffffffffff1681526020019060010190808311610356575b505050505081526020016008820160009054906101000a900460ff1615151515815250509050806040015173ffffffffffffffffffffffffffffffffffffffff163373ffffffffffffffffffffffffffffffffffffffff1614610438576040517f08c379a000000000000000000000000000000000000000000000000000000000815260040161042f90611c32565b60405180910390fd5b60005b8160c00151518160ff1610156104af5761049c838360c001518360ff168151811061048f577f4e487b7100000000000000000000000000000000000000000000000000000000600052603260045260246000fd5b60200260200101516104b4565b80806104a790611e50565b91505061043b565b505050565b600080600084815260200190815260200160002090508060020160009054906101000a900473ffffffffffffffffffffffffffffffffffffffff1673ffffffffffffffffffffffffffffffffffffffff163373ffffffffffffffffffffffffffffffffffffffff161461055c576040517f08c379a000000000000000000000000000000000000000000000000000000000815260040161055390611c32565b60405180910390fd5b600080600090505b82600601805490508160ff161015610693578373ffffffffffffffffffffffffffffffffffffffff16836006018260ff16815481106105cc577f4e487b7100000000000000000000000000000000000000000000000000000000600052603260045260246000fd5b9060005260206000200160009054906101000a900473ffffffffffffffffffffffffffffffffffffffff1673ffffffffffffffffffffffffffffffffffffffff16141561068057826006018160ff1681548110610652577f4e487b7100000000000000000000000000000000000000000000000000000000600052603260045260246000fd5b9060005260206000200160009054906101000a900473ffffffffffffffffffffffffffffffffffffffff1691505b808061068b90611e50565b915050610564565b508273ffffffffffffffffffffffffffffffffffffffff168173ffffffffffffffffffffffffffffffffffffffff1614610702576040517f08c379a00000000000000000000000000000000000000000000000000000000081526004016106f990611c12565b60405180910390fd5b60005b82600701805490508160ff161015610802578373ffffffffffffffffffffffffffffffffffffffff16836007018260ff168154811061076d577f4e487b7100000000000000000000000000000000000000000000000000000000600052603260045260246000fd5b9060005260206000200160009054906101000a900473ffffffffffffffffffffffffffffffffffffffff1673ffffffffffffffffffffffffffffffffffffffff1614156107ef576040517f08c379a00000000000000000000000000000000000000000000000000000000081526004016107e690611b12565b60405180910390fd5b80806107fa90611e50565b915050610705565b50600015158260080160009054906101000a900460ff1615151461085b576040517f08c379a000000000000000000000000000000000000000000000000000000000815260040161085290611b32565b60405180910390fd5b81600701839080600181540180825580915050600190039060005260206000200160009091909190916101000a81548173ffffffffffffffffffffffffffffffffffffffff021916908373ffffffffffffffffffffffffffffffffffffffff16021790555060008373ffffffffffffffffffffffffffffffffffffffff1683600401546040516108ea906119d9565b60006040518083038185875af1925050503d8060008114610927576040519150601f19603f3d011682016040523d82523d6000602084013e61092c565b606091505b50509050806109a5578260070180548061096f577f4e487b7100000000000000000000000000000000000000000000000000000000600052603160045260246000fd5b6001900381819060005260206000200160006101000a81549073ffffffffffffffffffffffffffffffffffffffff021916905590555b806109e5576040517f08c379a00000000000000000000000000000000000000000000000000000000081526004016109dc90611bd2565b60405180910390fd5b7ff1a339b82ae7f02498f288a98ab45cb79a3395173c74383a7e6b3b7c0645d7ba8585604051610a16929190611a09565b60405180910390a15050505050565b6000602052806000526040600020600091509050806000015490806001018054610a4e90611e1e565b80601f0160208091040260200160405190810160405280929190818152602001828054610a7a90611e1e565b8015610ac75780601f10610a9c57610100808354040283529160200191610ac7565b820191906000526020600020905b815481529060010190602001808311610aaa57829003601f168201915b5050505050908060020160009054906101000a900473ffffffffffffffffffffffffffffffffffffffff16908060030154908060040154908060050154908060080160009054906101000a900460ff16905087565b60003330878787604051602001610b3795949392919061197a565b60405160208183030381529060405280519060200120905060608060405180610120016040528084815260200186868080601f016020809104026020016040519081016040528093929190818152602001838380828437600081840152601f19601f8201169050808301925050505050505081526020013373ffffffffffffffffffffffffffffffffffffffff16815260200189815260200188815260200187815260200183815260200182815260200160001515815250600080858152602001908152602001600020600082015181600001556020820151816001019080519060200190610c2792919061146b565b5060408201518160020160006101000a81548173ffffffffffffffffffffffffffffffffffffffff021916908373ffffffffffffffffffffffffffffffffffffffff160217905550606082015181600301556080820151816004015560a0820151816005015560c0820151816006019080519060200190610ca99291906114f1565b5060e0820151816007019080519060200190610cc69291906114f1565b506101008201518160080160006101000a81548160ff0219169083151502179055509050507f2553138c3f9c9008f266dbdbe9fc64f5b71e098d06ef714a190a65a8b9fc6bf383338a898b8a8a604051610d269796959493929190611a32565b60405180910390a15050505050505050565b60008060008381526020019081526020016000206040518061012001604052908160008201548152602001600182018054610d7290611e1e565b80601f0160208091040260200160405190810160405280929190818152602001828054610d9e90611e1e565b8015610deb5780601f10610dc057610100808354040283529160200191610deb565b820191906000526020600020905b815481529060010190602001808311610dce57829003601f168201915b505050505081526020016002820160009054906101000a900473ffffffffffffffffffffffffffffffffffffffff1673ffffffffffffffffffffffffffffffffffffffff1673ffffffffffffffffffffffffffffffffffffffff16815260200160038201548152602001600482015481526020016005820154815260200160068201805480602002602001604051908101604052809291908181526020018280548015610eed57602002820191906000526020600020905b8160009054906101000a900473ffffffffffffffffffffffffffffffffffffffff1673ffffffffffffffffffffffffffffffffffffffff1681526020019060010190808311610ea3575b5050505050815260200160078201805480602002602001604051908101604052809291908181526020018280548015610f7b57602002820191906000526020600020905b8160009054906101000a900473ffffffffffffffffffffffffffffffffffffffff1673ffffffffffffffffffffffffffffffffffffffff1681526020019060010190808311610f31575b505050505081526020016008820160009054906101000a900460ff161515151581525050905080610100015115610fe7576040517f08c379a0000000000000000000000000000000000000000000000000000000008152600401610fde90611bf2565b60405180910390fd5b62093a808160600151610ffa9190611c99565b42101561103c576040517f08c379a000000000000000000000000000000000000000000000000000000000815260040161103390611c52565b60405180910390fd5b806040015173ffffffffffffffffffffffffffffffffffffffff163373ffffffffffffffffffffffffffffffffffffffff16146110ae576040517f08c379a00000000000000000000000000000000000000000000000000000000081526004016110a590611c32565b60405180910390fd5b60008160e00151518260c00151516110c69190611d49565b905060008260800151826110da9190611cef565b905060018361010001901515908115158152505060003373ffffffffffffffffffffffffffffffffffffffff1682604051611114906119d9565b60006040518083038185875af1925050503d8060008114611151576040519150601f19603f3d011682016040523d82523d6000602084013e611156565b606091505b505090508061119a576040517f08c379a000000000000000000000000000000000000000000000000000000000815260040161119190611bd2565b60405180910390fd5b7f393073ea1365f611c3d2f240c992960d2b99dc81715555d3fc40fc55ba80af9c856040516111c991906119ee565b60405180910390a15050505050565b6000806000838152602001908152602001600020905080600401543414611234576040517f08c379a000000000000000000000000000000000000000000000000000000000815260040161122b90611b92565b60405180910390fd5b806003015442111561127b576040517f08c379a000000000000000000000000000000000000000000000000000000000815260040161127290611b52565b60405180910390fd5b80600501548160060180549050106112c8576040517f08c379a00000000000000000000000000000000000000000000000000000000081526004016112bf90611bb2565b60405180910390fd5b60005b81600601805490508160ff1610156113c8573373ffffffffffffffffffffffffffffffffffffffff16826006018260ff1681548110611333577f4e487b7100000000000000000000000000000000000000000000000000000000600052603260045260246000fd5b9060005260206000200160009054906101000a900473ffffffffffffffffffffffffffffffffffffffff1673ffffffffffffffffffffffffffffffffffffffff1614156113b5576040517f08c379a00000000000000000000000000000000000000000000000000000000081526004016113ac90611b72565b60405180910390fd5b80806113c090611e50565b9150506112cb565b5080600601339080600181540180825580915050600190039060005260206000200160009091909190916101000a81548173ffffffffffffffffffffffffffffffffffffffff021916908373ffffffffffffffffffffffffffffffffffffffff1602179055507fb79f4240bbdd272d98e02a5db7f0cf156e5fc000961c517670a26eeeec63ed90823360405161145f929190611a09565b60405180910390a15050565b82805461147790611e1e565b90600052602060002090601f01602090048101928261149957600085556114e0565b82601f106114b257805160ff19168380011785556114e0565b828001600101855582156114e0579182015b828111156114df5782518255916020019190600101906114c4565b5b5090506114ed919061157b565b5090565b82805482825590600052602060002090810192821561156a579160200282015b828111156115695782518260006101000a81548173ffffffffffffffffffffffffffffffffffffffff021916908373ffffffffffffffffffffffffffffffffffffffff16021790555091602001919060010190611511565b5b509050611577919061157b565b5090565b5b8082111561159457600081600090555060010161157c565b5090565b6000813590506115a781612110565b92915050565b6000813590506115bc81612127565b92915050565b60008083601f8401126115d457600080fd5b8235905067ffffffffffffffff8111156115ed57600080fd5b60208301915083600182028301111561160557600080fd5b9250929050565b60008135905061161b8161213e565b92915050565b60006020828403121561163357600080fd5b6000611641848285016115ad565b91505092915050565b6000806040838503121561165d57600080fd5b600061166b858286016115ad565b925050602061167c85828601611598565b9150509250929050565b60008060008060006080868803121561169e57600080fd5b60006116ac8882890161160c565b95505060206116bd8882890161160c565b94505060406116ce8882890161160c565b935050606086013567ffffffffffffffff8111156116eb57600080fd5b6116f7888289016115c2565b92509250509295509295909350565b61170f81611d7d565b82525050565b61172661172182611d7d565b611e7a565b82525050565b61173581611d8f565b82525050565b61174481611d9b565b82525050565b60006117568385611c88565b9350611763838584611ddc565b61176c83611f06565b840190509392505050565b600061178282611c72565b61178c8185611c88565b935061179c818560208601611deb565b6117a581611f06565b840191505092915050565b60006117bd600f83611c88565b91506117c882611f24565b602082019050919050565b60006117e0601083611c88565b91506117eb82611f4d565b602082019050919050565b6000611803601083611c88565b915061180e82611f76565b602082019050919050565b6000611826601183611c88565b915061183182611f9f565b602082019050919050565b6000611849600a83611c88565b915061185482611fc8565b602082019050919050565b600061186c602883611c88565b915061187782611ff1565b604082019050919050565b600061188f601283611c88565b915061189a82612040565b602082019050919050565b60006118b2600b83611c88565b91506118bd82612069565b602082019050919050565b60006118d5601283611c88565b91506118e082612092565b602082019050919050565b60006118f8600083611c7d565b9150611903826120bb565b600082019050919050565b600061191b600e83611c88565b9150611926826120be565b602082019050919050565b600061193e600e83611c88565b9150611949826120e7565b602082019050919050565b61195d81611dc5565b82525050565b61197461196f82611dc5565b611e9e565b82525050565b60006119868288611715565b6014820191506119968287611715565b6014820191506119a68286611963565b6020820191506119b68285611963565b6020820191506119c68284611963565b6020820191508190509695505050505050565b60006119e4826118eb565b9150819050919050565b6000602082019050611a03600083018461173b565b92915050565b6000604082019050611a1e600083018561173b565b611a2b6020830184611706565b9392505050565b600060c082019050611a47600083018a61173b565b611a546020830189611706565b611a616040830188611954565b611a6e6060830187611954565b611a7b6080830186611954565b81810360a0830152611a8e81848661174a565b905098975050505050505050565b600060e082019050611ab1600083018a61173b565b8181036020830152611ac38189611777565b9050611ad26040830188611706565b611adf6060830187611954565b611aec6080830186611954565b611af960a0830185611954565b611b0660c083018461172c565b98975050505050505050565b60006020820190508181036000830152611b2b816117b0565b9050919050565b60006020820190508181036000830152611b4b816117d3565b9050919050565b60006020820190508181036000830152611b6b816117f6565b9050919050565b60006020820190508181036000830152611b8b81611819565b9050919050565b60006020820190508181036000830152611bab8161183c565b9050919050565b60006020820190508181036000830152611bcb8161185f565b9050919050565b60006020820190508181036000830152611beb81611882565b9050919050565b60006020820190508181036000830152611c0b816118a5565b9050919050565b60006020820190508181036000830152611c2b816118c8565b9050919050565b60006020820190508181036000830152611c4b8161190e565b9050919050565b60006020820190508181036000830152611c6b81611931565b9050919050565b600081519050919050565b600081905092915050565b600082825260208201905092915050565b6000611ca482611dc5565b9150611caf83611dc5565b9250827fffffffffffffffffffffffffffffffffffffffffffffffffffffffffffffffff03821115611ce457611ce3611ea8565b5b828201905092915050565b6000611cfa82611dc5565b9150611d0583611dc5565b9250817fffffffffffffffffffffffffffffffffffffffffffffffffffffffffffffffff0483118215151615611d3e57611d3d611ea8565b5b828202905092915050565b6000611d5482611dc5565b9150611d5f83611dc5565b925082821015611d7257611d71611ea8565b5b828203905092915050565b6000611d8882611da5565b9050919050565b60008115159050919050565b6000819050919050565b600073ffffffffffffffffffffffffffffffffffffffff82169050919050565b6000819050919050565b600060ff82169050919050565b82818337600083830152505050565b60005b83811015611e09578082015181840152602081019050611dee565b83811115611e18576000848401525b50505050565b60006002820490506001821680611e3657607f821691505b60208210811415611e4a57611e49611ed7565b5b50919050565b6000611e5b82611dcf565b915060ff821415611e6f57611e6e611ea8565b5b600182019050919050565b6000611e8582611e8c565b9050919050565b6000611e9782611f17565b9050919050565b6000819050919050565b7f4e487b7100000000000000000000000000000000000000000000000000000000600052601160045260246000fd5b7f4e487b7100000000000000000000000000000000000000000000000000000000600052602260045260246000fd5b6000601f19601f8301169050919050565b60008160601b9050919050565b7f414c524541445920434c41494d45440000000000000000000000000000000000600082015250565b7f414c52454144592050414944204f555400000000000000000000000000000000600082015250565b7f414c52454144592048415050454e454400000000000000000000000000000000600082015250565b7f414c524541445920434f4e4649524d4544000000000000000000000000000000600082015250565b7f4e4f5420454e4f55474800000000000000000000000000000000000000000000600082015250565b7f54686973206576656e742068617320726561636865642069742773206d61782060008201527f6361706163697479000000000000000000000000000000000000000000000000602082015250565b7f4641494c454420544f2053454e44204554480000000000000000000000000000600082015250565b7f414c524144592050414944000000000000000000000000000000000000000000600082015250565b7f4e4f205253565020544f20434f4e4649524d0000000000000000000000000000600082015250565b50565b7f4e4f5420415554484f52495a4544000000000000000000000000000000000000600082015250565b7f4e4f542037204441595320594554000000000000000000000000000000000000600082015250565b61211981611d7d565b811461212457600080fd5b50565b61213081611d9b565b811461213b57600080fd5b50565b61214781611dc5565b811461215257600080fd5b5056fea26469706673582212208b226e6f287967f80b012f85e74580b3aa4807732fa4b4e8a10c2e4b7579facb64736f6c63430008040033",
  "linkReferences": {},
  "deployedLinkReferences": {}
}